{
  "_format": "hh-sol-artifact-1",
  "contractName": "SimpleLiquidityPool",
  "sourceName": "contracts/SimpleLiquidityPool.sol",
  "abi": [
    {
      "inputs": [
        {
          "internalType": "address",
          "name": "_tokenA",
          "type": "address"
        },
        {
          "internalType": "address",
          "name": "_tokenB",
          "type": "address"
        }
      ],
      "stateMutability": "nonpayable",
      "type": "constructor"
    },
    {
      "anonymous": false,
      "inputs": [
        {
          "indexed": true,
          "internalType": "address",
          "name": "provider",
          "type": "address"
        },
        {
          "indexed": false,
          "internalType": "uint256",
          "name": "amountA",
          "type": "uint256"
        },
        {
          "indexed": false,
          "internalType": "uint256",
          "name": "amountB",
          "type": "uint256"
        },
        {
          "indexed": false,
          "internalType": "uint256",
          "name": "lpTokensMinted",
          "type": "uint256"
        }
      ],
      "name": "LiquidityAdded",
      "type": "event"
    },
    {
      "anonymous": false,
      "inputs": [
        {
          "indexed": true,
          "internalType": "address",
          "name": "provider",
          "type": "address"
        },
        {
          "indexed": false,
          "internalType": "uint256",
          "name": "amountA",
          "type": "uint256"
        },
        {
          "indexed": false,
          "internalType": "uint256",
          "name": "amountB",
          "type": "uint256"
        },
        {
          "indexed": false,
          "internalType": "uint256",
          "name": "lpTokensBurned",
          "type": "uint256"
        }
      ],
      "name": "LiquidityRemoved",
      "type": "event"
    },
    {
      "anonymous": false,
      "inputs": [
        {
          "indexed": true,
          "internalType": "address",
          "name": "trader",
          "type": "address"
        },
        {
          "indexed": false,
          "internalType": "address",
          "name": "tokenIn",
          "type": "address"
        },
        {
          "indexed": false,
          "internalType": "uint256",
          "name": "amountIn",
          "type": "uint256"
        },
        {
          "indexed": false,
          "internalType": "address",
          "name": "tokenOut",
          "type": "address"
        },
        {
          "indexed": false,
          "internalType": "uint256",
          "name": "amountOut",
          "type": "uint256"
        }
      ],
      "name": "Swap",
      "type": "event"
    },
    {
      "inputs": [],
      "name": "FEE_DENOMINATOR",
      "outputs": [
        {
          "internalType": "uint256",
          "name": "",
          "type": "uint256"
        }
      ],
      "stateMutability": "view",
      "type": "function"
    },
    {
      "inputs": [],
      "name": "FEE_NUMERATOR",
      "outputs": [
        {
          "internalType": "uint256",
          "name": "",
          "type": "uint256"
        }
      ],
      "stateMutability": "view",
      "type": "function"
    },
    {
      "inputs": [
        {
          "internalType": "uint256",
          "name": "amountA",
          "type": "uint256"
        },
        {
          "internalType": "uint256",
          "name": "amountB",
          "type": "uint256"
        }
      ],
      "name": "addLiquidity",
      "outputs": [
        {
          "internalType": "uint256",
          "name": "lpTokens",
          "type": "uint256"
        }
      ],
      "stateMutability": "nonpayable",
      "type": "function"
    },
    {
      "inputs": [
        {
          "internalType": "address",
          "name": "",
          "type": "address"
        }
      ],
      "name": "balanceOf",
      "outputs": [
        {
          "internalType": "uint256",
          "name": "",
          "type": "uint256"
        }
      ],
      "stateMutability": "view",
      "type": "function"
    },
    {
      "inputs": [
        {
          "internalType": "address",
          "name": "tokenIn",
          "type": "address"
        },
        {
          "internalType": "uint256",
          "name": "amountIn",
          "type": "uint256"
        }
      ],
      "name": "getAmountOut",
      "outputs": [
        {
          "internalType": "uint256",
          "name": "amountOut",
          "type": "uint256"
        }
      ],
      "stateMutability": "view",
      "type": "function"
    },
    {
      "inputs": [],
      "name": "getPrice",
      "outputs": [
        {
          "internalType": "uint256",
          "name": "price",
          "type": "uint256"
        }
      ],
      "stateMutability": "view",
      "type": "function"
    },
    {
      "inputs": [
        {
          "internalType": "uint256",
          "name": "lpTokens",
          "type": "uint256"
        }
      ],
      "name": "removeLiquidity",
      "outputs": [
        {
          "internalType": "uint256",
          "name": "amountA",
          "type": "uint256"
        },
        {
          "internalType": "uint256",
          "name": "amountB",
          "type": "uint256"
        }
      ],
      "stateMutability": "nonpayable",
      "type": "function"
    },
    {
      "inputs": [],
      "name": "reserveA",
      "outputs": [
        {
          "internalType": "uint256",
          "name": "",
          "type": "uint256"
        }
      ],
      "stateMutability": "view",
      "type": "function"
    },
    {
      "inputs": [],
      "name": "reserveB",
      "outputs": [
        {
          "internalType": "uint256",
          "name": "",
          "type": "uint256"
        }
      ],
      "stateMutability": "view",
      "type": "function"
    },
    {
      "inputs": [
        {
          "internalType": "address",
          "name": "tokenIn",
          "type": "address"
        },
        {
          "internalType": "uint256",
          "name": "amountIn",
          "type": "uint256"
        },
        {
          "internalType": "uint256",
          "name": "minAmountOut",
          "type": "uint256"
        }
      ],
      "name": "swap",
      "outputs": [
        {
          "internalType": "uint256",
          "name": "amountOut",
          "type": "uint256"
        }
      ],
      "stateMutability": "nonpayable",
      "type": "function"
    },
    {
      "inputs": [],
      "name": "tokenA",
      "outputs": [
        {
          "internalType": "address",
          "name": "",
          "type": "address"
        }
      ],
      "stateMutability": "view",
      "type": "function"
    },
    {
      "inputs": [],
      "name": "tokenB",
      "outputs": [
        {
          "internalType": "address",
          "name": "",
          "type": "address"
        }
      ],
      "stateMutability": "view",
      "type": "function"
    },
    {
      "inputs": [],
      "name": "totalSupply",
      "outputs": [
        {
          "internalType": "uint256",
          "name": "",
          "type": "uint256"
        }
      ],
      "stateMutability": "view",
      "type": "function"
    }
  ],
  "bytecode": "0x608060405234801561001057600080fd5b5060405161106238038061106283398101604081905261002f916100e1565b806001600160a01b0316826001600160a01b0316036100945760405162461bcd60e51b815260206004820152601660248201527f506f6f6c3a206964656e746963616c20746f6b656e7300000000000000000000604482015260640160405180910390fd5b600080546001600160a01b039384166001600160a01b03199182161790915560018054929093169116179055610114565b80516001600160a01b03811681146100dc57600080fd5b919050565b600080604083850312156100f457600080fd5b6100fd836100c5565b915061010b602084016100c5565b90509250929050565b610f3f806101236000396000f3fe608060405234801561001057600080fd5b50600436106100cf5760003560e01c806398d5fdca1161008c5780639f1d0f59116100665780639f1d0f59146101a3578063ca706bcf146101b6578063d73792a9146101c9578063dc5fa6c5146101d257600080fd5b806398d5fdca146101605780639c8f9f23146101685780639cd441da1461019057600080fd5b80630fc63d10146100d457806318160ddd1461010457806319e36f3b1461011b57806341cd47bf146101245780635f64b55b1461012d57806370a0823114610140575b600080fd5b6000546100e7906001600160a01b031681565b6040516001600160a01b0390911681526020015b60405180910390f35b61010d60045481565b6040519081526020016100fb565b61010d60035481565b61010d6103e581565b6001546100e7906001600160a01b031681565b61010d61014e366004610d86565b60056020526000908152604090205481565b61010d6101db565b61017b610176366004610da8565b61022e565b604080519283526020830191909152016100fb565b61010d61019e366004610dc1565b610524565b61010d6101b1366004610de3565b610800565b61010d6101c4366004610e16565b610be2565b61010d6103e881565b61010d60025481565b600080600254116102075760405162461bcd60e51b81526004016101fe90610e40565b60405180910390fd5b60025460035461021f90670de0b6b3a7640000610e82565b6102299190610e9f565b905090565b600080600083116102815760405162461bcd60e51b815260206004820152601a60248201527f506f6f6c3a206c70546f6b656e73206d757374206265203e203000000000000060448201526064016101fe565b336000908152600560205260409020548311156102e05760405162461bcd60e51b815260206004820152601c60248201527f506f6f6c3a20696e73756666696369656e74204c5020746f6b656e730000000060448201526064016101fe565b6004546002546102f09085610e82565b6102fa9190610e9f565b91506004546003548461030d9190610e82565b6103179190610e9f565b90506000821180156103295750600081115b6103815760405162461bcd60e51b815260206004820152602360248201527f506f6f6c3a20696e73756666696369656e74206c6971756964697479206275726044820152621b995960ea1b60648201526084016101fe565b33600090815260056020526040812080548592906103a0908490610ec1565b9250508190555082600460008282546103b99190610ec1565b9250508190555081600260008282546103d29190610ec1565b9250508190555080600360008282546103eb9190610ec1565b909155505060005460405163a9059cbb60e01b8152336004820152602481018490526001600160a01b039091169063a9059cbb906044016020604051808303816000875af1158015610441573d6000803e3d6000fd5b505050506040513d601f19601f820116820180604052508101906104659190610ed4565b5060015460405163a9059cbb60e01b8152336004820152602481018390526001600160a01b039091169063a9059cbb906044016020604051808303816000875af11580156104b7573d6000803e3d6000fd5b505050506040513d601f19601f820116820180604052508101906104db9190610ed4565b50604080518381526020810183905290810184905233907f1dc8bb69df2b8e91fbdcbfcf93d951b3f0000f085a95fe3f7946d6161439245d9060600160405180910390a2915091565b600080831180156105355750600082115b6105815760405162461bcd60e51b815260206004820152601960248201527f506f6f6c3a20616d6f756e7473206d757374206265203e20300000000000000060448201526064016101fe565b6000546040516323b872dd60e01b8152336004820152306024820152604481018590526001600160a01b03909116906323b872dd906064016020604051808303816000875af11580156105d8573d6000803e3d6000fd5b505050506040513d601f19601f820116820180604052508101906105fc9190610ed4565b506001546040516323b872dd60e01b8152336004820152306024820152604481018490526001600160a01b03909116906323b872dd906064016020604051808303816000875af1158015610654573d6000803e3d6000fd5b505050506040513d601f19601f820116820180604052508101906106789190610ed4565b5060045460000361069c576106956106908385610e82565b610cff565b90506106ee565b6000600254600454856106af9190610e82565b6106b99190610e9f565b90506000600354600454856106ce9190610e82565b6106d89190610e9f565b90508082106106e757806106e9565b815b925050505b6000811161074a5760405162461bcd60e51b815260206004820152602360248201527f506f6f6c3a20696e73756666696369656e74206c6971756964697479206d696e6044820152621d195960ea1b60648201526084016101fe565b826002600082825461075c9190610ef6565b9250508190555081600360008282546107759190610ef6565b92505081905550806004600082825461078e9190610ef6565b909155505033600090815260056020526040812080548392906107b2908490610ef6565b9091555050604080518481526020810184905290810182905233907f64b83944e79c3ce8d4c297411de637c3e102d064677aac0c163976ebdcd6f50e9060600160405180910390a292915050565b600080546001600160a01b038581169116148061082a57506001546001600160a01b038581169116145b61086c5760405162461bcd60e51b81526020600482015260136024820152722837b7b61d1034b73b30b634b2103a37b5b2b760691b60448201526064016101fe565b600083116108bc5760405162461bcd60e51b815260206004820152601a60248201527f506f6f6c3a20616d6f756e74496e206d757374206265203e203000000000000060448201526064016101fe565b60006002541180156108d057506000600354115b6108ec5760405162461bcd60e51b81526004016101fe90610e40565b600080546001600160a01b038681169116149081610915576000546001600160a01b0316610922565b6001546001600160a01b03165b905060008261093357600354610937565b6002545b90506000836109485760025461094c565b6003545b6040516323b872dd60e01b8152336004820152306024820152604481018990529091506001600160a01b038916906323b872dd906064016020604051808303816000875af11580156109a2573d6000803e3d6000fd5b505050506040513d601f19601f820116820180604052508101906109c69190610ed4565b5060006109d56103e589610e82565b9050806109e46103e885610e82565b6109ee9190610ef6565b6109f88383610e82565b610a029190610e9f565b955086861015610a545760405162461bcd60e51b815260206004820152601760248201527f506f6f6c3a20736c69707061676520657863656564656400000000000000000060448201526064016101fe565b818610610aa35760405162461bcd60e51b815260206004820152601c60248201527f506f6f6c3a20696e73756666696369656e74206c69717569646974790000000060448201526064016101fe565b8415610adf578760026000828254610abb9190610ef6565b925050819055508560036000828254610ad49190610ec1565b90915550610b109050565b8760036000828254610af19190610ef6565b925050819055508560026000828254610b0a9190610ec1565b90915550505b60405163a9059cbb60e01b8152336004820152602481018790526001600160a01b0385169063a9059cbb906044016020604051808303816000875af1158015610b5d573d6000803e3d6000fd5b505050506040513d601f19601f82011682018060405250810190610b819190610ed4565b50604080516001600160a01b038b81168252602082018b905286168183015260608101889052905133917f5380cf97d8f645d3c4896da60c053458dca03a3a31cec642ac80e1ddf0d8d02a919081900360800190a250505050509392505050565b600080546001600160a01b0384811691161480610c0c57506001546001600160a01b038481169116145b610c4e5760405162461bcd60e51b81526020600482015260136024820152722837b7b61d1034b73b30b634b2103a37b5b2b760691b60448201526064016101fe565b6000600254118015610c6257506000600354115b610c7e5760405162461bcd60e51b81526004016101fe90610e40565b600080546001600160a01b038581169116149081610c9e57600354610ca2565b6002545b9050600082610cb357600254610cb7565b6003545b90506000610cc76103e587610e82565b905080610cd66103e885610e82565b610ce09190610ef6565b610cea8383610e82565b610cf49190610e9f565b979650505050505050565b60006003821115610d605750806000610d19600283610e9f565b610d24906001610ef6565b90505b81811015610d5a57905080600281610d3f8186610e9f565b610d499190610ef6565b610d539190610e9f565b9050610d27565b50919050565b8115610d6a575060015b919050565b80356001600160a01b0381168114610d6a57600080fd5b600060208284031215610d9857600080fd5b610da182610d6f565b9392505050565b600060208284031215610dba57600080fd5b5035919050565b60008060408385031215610dd457600080fd5b50508035926020909101359150565b600080600060608486031215610df857600080fd5b610e0184610d6f565b95602085013595506040909401359392505050565b60008060408385031215610e2957600080fd5b610e3283610d6f565b946020939093013593505050565b602080825260129082015271506f6f6c3a206e6f206c697175696469747960701b604082015260600190565b634e487b7160e01b600052601160045260246000fd5b8082028115828204841417610e9957610e99610e6c565b92915050565b600082610ebc57634e487b7160e01b600052601260045260246000fd5b500490565b81810381811115610e9957610e99610e6c565b600060208284031215610ee657600080fd5b81518015158114610da157600080fd5b80820180821115610e9957610e99610e6c56fea26469706673582212206aa372e233562927a27822322427b8cc20fb92be148fec5c357bac2caeb4bcfc64736f6c63430008140033",
  "linkReferences": {},
  "deployedLinkReferences": {}
}